:020000040000FA
:100000000802002001020000090200000B020000AB
:100010000D0200000F0200001102000000000000AD
:1000200000000000000000000000000013020000BB
:100030001502000000000000170200001902000075
:100040001B0200001D0200001F0200002102000030
:100050002302000025020000270200002902000000
:100060002B0200002D0200002F02000031020000D0
:1000700033020000350200003702000039020000A0
:100080003B0200003D0200003F0200004102000070
:100090004302000045020000470200004902000040
:1000A0004B0200004D0200004F0200005102000010
:1000B00053020000550200005702000059020000E0
:1000C0005B0200005D0200005F02000061020000B0
:1000D0006302000065020000670200006902000080
:1000E0006B0200006D0200006F0200007102000050
:1000F0007302000075020000770200007902000020
:100100007B0200007D0200007F02000081020000EF
:1001100083020000850200008702000089020000BF
:100120008B0200008D0200008F020000910200008F
:10013000930200009502000097020000990200005F
:100140009B0200009D0200009F020000B902000017
:100150000000000000000000BB020000BD02000023
:10016000BF020000C102000000000000C302000046
:10017000C5020000C7020000C9020000CB02000057
:10018000CD020000CF020000D1020000D302000027
:10019000D5020000D7020000D9020000DB020000F7
:1001A000DD020000DF020000E1020000E3020000C7
:1001B000E5020000E7020000E9020000EB02000097
:1001C000ED020000EF020000F1020000F302000067
:1001D000F5020000F7020000F9020000FB02000037
:1001E000FD020000FF020000010300000303000005
:1001F0000503000007030000090300000B030000D3
:100200004548804745480047FEE7FEE7FEE7FEE732
:10021000FEE7FEE7FEE7FEE7FEE7FEE7FEE7FEE7B6
:10022000FEE7FEE7FEE7FEE7FEE7FEE7FEE7FEE7A6
:10023000FEE7FEE7FEE7FEE7FEE7FEE7FEE7FEE796
:10024000FEE7FEE7FEE7FEE7FEE7FEE7FEE7FEE786
:10025000FEE7FEE7FEE7FEE7FEE7FEE7FEE7FEE776
:10026000FEE7FEE7FEE7FEE7FEE7FEE7FEE7FEE766
:10027000FEE7FEE7FEE7FEE7FEE7FEE7FEE7FEE756
:10028000FEE7FEE7FEE7FEE7FEE7FEE7FEE7FEE746
:10029000FEE7FEE7FEE7FEE7FEE7FEE7FEE7FEE736
:1002A000FEE7FEE7FEE7FEE7FEE7FEE7FEE7FEE726
:1002B000FEE7FEE7FEE7FEE7FEE7FEE7FEE7FEE716
:1002C000FEE7FEE7FEE7FEE7FEE7FEE7FEE7FEE706
:1002D000FEE7FEE7FEE7FEE7FEE7FEE7FEE7FEE7F6
:1002E000FEE7FEE7FEE7FEE7FEE7FEE7FEE7FEE7E6
:1002F000FEE7FEE7FEE7FEE7FEE7FEE7FEE7FEE7D6
:10030000FEE7FEE7FEE7FEE7FEE7FEE704480549F5
:10031000034A054B704700003503000059030000F5
:1003200008000020080200200800002070477047E5
:10033000704700004EF68851CEF20001086840F484
:100340007000086040F20001C2F2000142F2004079
:10035000C0F2F400086070471D484FF010011D4ABC
:100360004FF020031C4C4FF6FF7502EA04064FEADB
:10037000164602EA0507DFF86480DFF86490DFF8CC
:1003800064A0068040EA030020F8027B484508BFCD
:10039000D04600EA080006F1010607F10107A1F1C5
:1003A00001010029EDD10A4801F12001002908BF0F
:1003B0004FF0FF0B0BD090F800C000F10200A1F14C
:1003C0000101BCF1A40F00D0F0E74FF0A40BFEE751
:1003D00000040020F0F0A0A00000FFFF0F040020A8
:0C03E000300400201F0400200024F40062
:0400000500000201F4
:00000001FF
