:020000040000FA
:100000000802002001020000090200000B020000AB
:100010000D0200000F0200001102000000000000AD
:1000200000000000000000000000000013020000BB
:100030001502000000000000170200001902000075
:100040001B0200001D0200001F0200002102000030
:100050002502000027020000290200002B020000F8
:100060002D0200002F0200003102000033020000C8
:100070003502000037020000390200003B02000098
:100080003D0200003F020000410200004302000068
:100090004502000047020000490200004B02000038
:1000A0004D0200004F020000510200005302000008
:1000B0005502000057020000590200005B020000D8
:1000C0005D0200005F0200006102000063020000A8
:1000D0006502000067020000690200006B02000078
:1000E0006D0200006F020000710200007302000048
:1000F0007502000077020000790200007B02000018
:100100007D0200007F0200008102000083020000E7
:100110008502000087020000890200008B020000B7
:100120008D0200008F020000910200009302000087
:100130009502000097020000990200009B02000057
:100140009D0200009F020000A1020000BB0200000F
:100150000000000000000000BD020000BF0200001F
:10016000C1020000C302000000000000C502000040
:10017000C7020000C9020000CB020000CD0200004F
:10018000CF020000D1020000D3020000D50200001F
:10019000D7020000D9020000DB020000DD020000EF
:1001A000DF020000E1020000E3020000E5020000BF
:1001B000E7020000E9020000EB020000ED0200008F
:1001C000EF020000F1020000F3020000F50200005F
:1001D000F7020000F9020000FB020000FD0200002F
:1001E000FF020000010300000303000005030000FC
:1001F00007030000090300000B0300000D030000CB
:100200004648804746480047FEE7FEE7FEE7FEE730
:10021000FEE7FEE7FEE7FEE7FEE7FEE7FEE7FEE7B6
:1002200000F0E4B8FEE7FEE7FEE7FEE7FEE7FEE7E4
:10023000FEE7FEE7FEE7FEE7FEE7FEE7FEE7FEE796
:10024000FEE7FEE7FEE7FEE7FEE7FEE7FEE7FEE786
:10025000FEE7FEE7FEE7FEE7FEE7FEE7FEE7FEE776
:10026000FEE7FEE7FEE7FEE7FEE7FEE7FEE7FEE766
:10027000FEE7FEE7FEE7FEE7FEE7FEE7FEE7FEE756
:10028000FEE7FEE7FEE7FEE7FEE7FEE7FEE7FEE746
:10029000FEE7FEE7FEE7FEE7FEE7FEE7FEE7FEE736
:1002A000FEE7FEE7FEE7FEE7FEE7FEE7FEE7FEE726
:1002B000FEE7FEE7FEE7FEE7FEE7FEE7FEE7FEE716
:1002C000FEE7FEE7FEE7FEE7FEE7FEE7FEE7FEE706
:1002D000FEE7FEE7FEE7FEE7FEE7FEE7FEE7FEE7F6
:1002E000FEE7FEE7FEE7FEE7FEE7FEE7FEE7FEE7E6
:1002F000FEE7FEE7FEE7FEE7FEE7FEE7FEE7FEE7D6
:10030000FEE7FEE7FEE7FEE7FEE7FEE7FEE70000AA
:1003100004480549034A054B7047000039030000B3
:100320003D04000008000020080200200800002012
:1003300070477047704700004EF68851CEF20001BA
:10034000086840F47000086040F20001C2F2000149
:1003500042F20040C0F2F40008607047204908688B
:1003600040F00900086000BF00BF00BF1D4901F553
:100370008061086840F03F0008601B4901F5846116
:10038000086820F0FF000860164901F584610868DC
:1003900020F0FF000860144901F21C51086840F089
:1003A000FF0008600F4901F21C51086840F0FF008F
:1003B00008600D4901F58261086840F0010008609D
:1003C000094901F20C41086840F0010008604FF053
:1003D000E02101F58071086840F00800086070476E
:1003E00008E60F400080054000B0054000BF4FF414
:1003F00040220F4B1A600F4901F58071086840F0E8
:100400000100086000F006F8086820F001000860AC
:1004100000F000F81C68A4F10104002CFBD1704727
:10042000054800F21C40016841F00101016070477D
:10043000000400200080054000B0054000BFFFF729
:100440008DFF4FF498020C4B1A600C4901F5807136
:10045000086840F00100086000F007F8086820F024
:100460000100086000F001F8EBE71C68A4F101044A
:10047000002CFBD1704700000004002000800540E4
:040480000024F40060
:0400000500000201F4
:00000001FF
